:020000040800F2
:1000000048040020010100082B0C0008D70A000852
:10001000290C00088F020008110D000800000000E4
:100020000000000000000000000000004F0C00086D
:1000300091020008000000004D0C0008510C00085F
:100040001B0100081B0100081B0100081B01000820
:100050001B0100081B0100081B0100081B01000810
:100060001B0100081B0100081B0100081B01000800
:100070001B0100081B0100081B0100081B010008F0
:100080001B0100081B0100081B0100081B010008E0
:100090001B0100081B0100081B0100081B010008D0
:1000A0001B0100081B0100081B0100081B010008C0
:1000B0001B0100081B0100081B0100081B010008B0
:1000C0001B0100081B0100081B0100081B010008A0
:1000D0001B0100081B0100081B0100081B01000890
:1000E0001B0100081B0100081B010008DFF80CD0F1
:1000F00000F0ACF800480047310D0008480400202B
:100100000648804706480047FEE7FEE7FEE7FEE7B1
:10011000FEE7FEE7FEE7FEE7FEE7FEE7C90C0008A4
:10012000ED000008202A04DB203A21FA02F0002129
:10013000704721FA02F3D040C2F1200291400843F7
:10014000194670470EB540F2334102910021CDE9C6
:1001500000110A460B4600F02AF803B000BD00006B
:1001600030B5041E71F1000404DB4FF0004440423E
:1001700064EB0101141E73F1000405DB1C464FF013
:100180000043524263EB04038B4208BF824230BDFE
:1001900010B5141E73F1000408DA401C41F100018F
:1001A00092185B411A4301D120F0010010BD2DE9E6
:1001B000F04D92469B4611B1B1FA81F202E0B0FADD
:1001C00080F22032904600F053F804460F4640EA91
:1001D0000A0041EA0B0153465A46084313D0114620
:1001E00053EA010019D0C8F140025046FFF79AFFC8
:1001F00005460E4650465946424600F039F8084337
:1002000005D0012004E020463946BDE8F08D0020ED
:10021000054346EAE0762C4337430A986305E40A2F
:10022000A0EB08000022FD0A44EA47540A3002D538
:1002300000200146E9E7010510196941DDE908459B
:1002400000196941BDE8F04DA2E70000064C074DDA
:1002500006E0E06840F0010394E807009847103496
:10026000AC42F6D3FFF746FFA80D0008C80D000802
:10027000202A04DB203A00FA02F100207047914066
:10028000C2F1200320FA03F3194390407047FEE7C0
:10029000704700002DE9F84FDFF890A100220AF125
:1002A000040B144601274FF00F090BF1040E00BF99
:1002B0000B6807FA04F52B40AB4274D1DFF870C12C
:1002C0004E68A6EB0C0866452BD00DDC032E34D00F
:1002D00005DC36B3012E19D0022E2FD11BE0112ED2
:1002E00016D0122E2AD119E0B8F5881F19D006DCD5
:1002F000B8F5803F15D0B8F5801F1FD111E0B8F5D3
:10030000001F0ED0B8F5041F18D10AE0CA6815E026
:10031000CA68121D12E0CA6808320FE0CA680C32BF
:100320000CE08A682AB1012A4FF0080203D0456127
:1003300004E0042202E0056100E00022FF2B01D866
:10034000064601E000F104064FEA840501D9A5F153
:100350002005D6F800C009FA05F82CEA080C02FAC4
:1003600005F54CEA050CC6F800C04D68ED0057D500
:10037000304DAE6946F00106AE61AD6924F003066A
:1003800005F0010500952C4D06EB050CDCF8085036
:10039000A6074FEA167809FA08F6B543274EB04289
:1003A00002D1002610E03BE0254EB04201D10126EB
:1003B0000AE0244EB04201D1022605E0224EB042AE
:1003C00001D1032600E0042606FA08F62E43CCF8F5
:1003D00008604D68DAF80060ED03554601D51E430C
:1003E00000E09E432E604D68DBF80060AD035D4683
:1003F00001D51E4300E09E432E604D68DEF800608C
:10040000ED02754601D51E4300E09E432E604D6807
:10041000AD020E4D2E6801D51E4300E09E432E60B6
:10042000641C102CFFF444AFBDE8F88F00040140B9
:1004300000001110001002400000014000080140BF
:10044000000C014000100140001401400C04014068
:100450000AB1016170470904FBE700000148006828
:10046000704700000000002002480168491C01603C
:100470007047000000000020074810B5016841F0F7
:1004800010010160032000F087F8002000F006F85A
:1004900000F018F8002010BD0020024010B50446FE
:1004A00007484FF47A710068B0FBF1F000F0FBFAF6
:1004B00000222146501E00F04FF8002010BD000021
:1004C00004000020224808B5816941F001018161E2
:1004D000816901F001010091C16941F08051C16160
:1004E000C06900F080500090032000F055F8002211
:1004F00011466FF00B0000F02FF8002211466FF04C
:100500000A0000F029F8002211466FF0090000F0FF
:1005100023F800221146501F00F01EF80022114659
:10052000101F00F019F800221146901E00F014F878
:1005300000221146501E00F00FF80648416821F0D5
:10054000E0614160416841F00071416008BD000018
:100550000010024000000140F0B40E4B1B680C4636
:10056000C3F30223C3F10705042D00D90425191D87
:10057000072901D2002300E0DB1E012606FA05F15F
:10058000491E214099409E40761E16403143F0BCE2
:1005900000F04CBB0CED00E0064900F007020868D3
:1005A0004FF6FF03184040EA0220034A1043086058
:1005B000704700000CED00E00000FA052DE9F0475F
:1005C000DFF83C8105460E46D8F8000000F0070031
:1005D000B0420CD2D8F8001021F007013143C8F81E
:1005E0000010D8F8000000F00700B04263D128786E
:1005F000444C800705D56068A96820F0F0000843E6
:1006000060602878C00745D06868012816D0216846
:10061000022816D0890700294DDA616821F003010C
:1006200001436160FFF71AFF6968074641F28830AD
:1006300001290FD00229814619D027E021688903BA
:10064000E9E78901E7E700BFFFF708FFC11B49455C
:1006500001D918E081466068C0F381000128F3D118
:1006600018E000BFFFF7FAFEC11B49450BD86068D0
:10067000C0F381000228F5D10CE000BFFFF7EEFEC9
:10068000C11B494502D90320BDE8F087606810F01E
:100690000C0FF3D1D8F80010404601F00701B14229
:1006A0000BD9016821F0070131430160006800F0B7
:1006B0000700B04201D00120E6E72878400705D5C1
:1006C0006068E96820F4E06008436060287800070B
:1006D00006D56068296920F4605040EAC100606076
:1006E00000F01CF86168084AC1F30311515CC8406E
:1006F000064908600020FFF7D1FE0020C4E7000093
:100700000020024000100240980D00080400002064
:1007100001480068704700000400002010B512A3D3
:1007200085B00FCB8DE80F0013A0144B0068049028
:100730005A68134802F00C0104290FD008290DD182
:10074000C2F38344D2031DF8041009D55A6804ABE0
:10075000C2F340429A5CB0FBF2F0484305B010BDD2
:1007600008484843FAE700000203040506070809A1
:100770000A0B0C0D0E0F10100102000000100240B9
:1007800000127A0000093D002DE9F84F0446007878
:10079000B94DC00748D06868C0F38100012807D070
:1007A0006868C0F38100022809D16868C00306D5D3
:1007B0002868800338D5606800286FD034E060680E
:1007C000B0F5803F0BD010B1B0F5A02F11D0286844
:1007D00020F480302860286820F4802002E0286817
:1007E00040F480302860606888B1FFF737FE064625
:1007F00009E0286840F480202860F0E7FFF72EFE2B
:10080000801B642875D828688003F7D50CE0FFF7B3
:1008100025FE064605E000BFFFF720FE801B64288A
:10082000F0D828688003F7D42078944E80074FF0E2
:1008300001094FF000083BD5686810F00C0F07D095
:100840006868C0F38100022809D16868C00306D433
:100850002868800714D5206901281FD110E020697D
:10086000B0B1C6F80090FFF7F9FD074605E000BFFC
:10087000FFF7F4FDC01B0228C4D828688007F7D50D
:100880002868616920F0F80040EAC10028600FE0A4
:10089000C6F80080FFF7E2FD074606E0E9E000BF8A
:1008A000FFF7DCFDC01B022823D828688007F7D497
:1008B000207800072CD57248A169D9B1C0F8009002
:1008C000FFF7CCFD074604E0FFF7C8FDC01B022878
:1008D0000FD8686A8007F7D56A484FF4FA51006864
:1008E000B0FBF1F0009000BF0098411E0091FAD2D9
:1008F0000EE080E0C0F80080FFF7B0FD074604E09E
:10090000FFF7ACFDC01B022875D8686A8007F7D4D2
:100910002078400760D5E8690027C00008D4E8695E
:1009200040F08050E861E869012700F080500090B5
:1009300055480168C90513D40168834641F48071A4
:100940000160FFF78BFD824606E000BFFFF786FDE2
:10095000A0EB0A0064284ED8DBF80000C005F5D5EE
:10096000E06801280AD008B1052813D0286A20F0D1
:1009700001002862286A20F0040002E0286A40F0A2
:1009800001002862E06841F2883B98B1FFF766FDFC
:1009900082460BE0286A40F004002862EEE700BFC0
:1009A000FFF75CFDA0EB0A0159455AD8286A800779
:1009B000F6D50CE0FFF752FD824605E0FFF74EFD4D
:1009C000A0EB0A0159454CD8286A8007F6D41FB11C
:1009D000E86920F08050E861E06988B36968C1F394
:1009E0008101022945D00228C6F8608004D0FFF7B3
:1009F00035FD044638E034E0FFF730FD074604E0FB
:100A0000FFF72CFDC01B02282BD828688001F7D4E3
:100A1000206AB0F5803F05D16868A16820F40030F5
:100A200008436860D4E908010843696821F4741137
:100A300008436860C6F86090FFF710FD044606E0C2
:100A400015E000BFFFF70AFD001B022809D828683F
:100A50008001F7D50BE000BFFFF700FD001B022867
:100A600002D90320BDE8F88F28688001F4D4002063
:100A7000F8E70120F6E700000010024000004242C3
:100A80008004424204000020007000404FF0E0214A
:100A90000428086903D020F004000861704740F082
:100AA0000400FAE7704710B5401EB0F1807F01D313
:100AB000012010BD4FF0E02460610F21601700F0AD
:100AC000B5F80020A06107202061002010BD10B5FE
:100AD000FFF7E8FF10BDFEE7704700002DE9F04783
:100AE0004F4C40F2E245A76AAF4201D2012000E03C
:100AF0000020FFF727FB40F6C3180026DFF824A1EB
:100B00004FF400794745C4E9000101DBA66201E02A
:100B10007F1CA76200221346FFF722FB01D10022AF
:100B200000E0012249465046FFF792FCE76AAF42D7
:100B300001D2012000E00020FFF704FB4FF4807990
:100B40004745C4E9020101DBE66201E07F1CE76280
:100B500000221346FFF704FB01D1002200E001222E
:100B600049465046FFF774FC276BAF4201D2012083
:100B700000E00020FFF7E6FA4FF480694745C4E93A
:100B8000040101DB266301E07F1C2763002213467A
:100B9000FFF7E6FA01D1002200E001224946504663
:100BA000FFF756FC676BAF4201D2012000E0002046
:100BB000FFF7C8FA4FF400694745C4E9060101DBB5
:100BC000666301E07F1C676300221346FFF7C8FAE3
:100BD00001D1002200E0012249465046FFF738FCCF
:100BE000A76BAF4201D2012000E00020FFF7AAFA74
:100BF0004FF480554745C4E9080101DBA66301E0D5
:100C00007F1CA76300221346FFF7AAFA01D1002236
:100C100000E0012229465046BDE8F047FFF718BC26
:100C20000800002000080140FEE770470907090E90
:100C3000002806DA00F00F0000F1E02080F8141D13
:100C4000704700F1E02080F800147047704770474B
:100C500010B5FFF709FCBDE81040FFF738BF30B50D
:100C60008FB001210804CDE9001000240294022570
:100C70000491CDE907504FF4E01009906846FFF762
:100C800083FD00B1FEE70F20CDE90A054FF4806037
:100C9000CDE90C4002210AA80E94FFF78FFC00B1A9
:100CA000FEE7FFF735FD4FF47A71B0FBF1F0FFF787
:100CB000FAFE0420FFF7EAFE00221146501EFFF75D
:100CC0004BFC0FB030BD00000D48016841F0010140
:100CD000016041680B4A1140416001680A4A1140B5
:100CE0000160016821F480210160416821F4FE0166
:100CF00041604FF41F0181600449C00308607047E0
:100D0000001002400000FFF8FFFFF6FE08ED00E0D3
:100D1000FEE702E008C8121F08C1002AFAD1704796
:100D20007047002001E001C1121F002AFBD170476B
:100D300086B0FFF7A1FBFFF792FF1548816941F0EC
:100D400020018161816901F020010491816941F0F4
:100D50000401816180690F4D00F004004FF4F854E4
:100D60000490002221462846FFF772FB0120CDE9BE
:100D70000040002002900220039069462846FFF7B9
:100D800089FAFFF7A9FE00BFFFF7A8FEFCE7000005
:100D900000100240000801400000000000000000B8
:100DA0000102030406070809C80D0008000000201E
:100DB00008000000120D0008D00D000808000020F7
:100DC00040040000220D00080000000000A24A04B8
:04000005080000ED02
:00000001FF
